:100000000C9462000C948A000C948A000C948A0070
:100010000C948A000C948A000C948A000C948A0038
:100020000C948A000C948A000C948A000C948A0028
:100030000C948A000C948A000C948A000C948A0018
:100040000C9466030C948A000C94B0030C948A0000
:100050000C9474040C948A000C948A000C948A000A
:100060000C948A000C948A000000000023002600F3
:10007000290000000000240027002A0000000000E2
:10008000250028002B0004040404040404040202D4
:100090000202020203030303030301020408102007
:1000A0004080010204081020010204081020000012
:1000B0000008000201000003040700000000000027
:1000C00000001F0C11241FBECFEFD8E0DEBFCDBF54
:1000D00011E0A0E0B1E0E2EBF9E102C005900D9281
:1000E000A033B107D9F722E0A0E3B1E001C01D922F
:1000F000A834B207E1F710E0C2E6D0E004C02197CF
:10010000FE010E94D10CC136D107C9F70E94C0047C
:100110000C94D70C0C94000020914302EBE0E29F7A
:10012000D0011124A55FBD4F6C932E9FF0011124C7
:1001300050E040E0DC013D91CD01DA01AE0FBF1F80
:10014000A45FBD4F3C934F5F5F4F461798F32F5FFF
:10015000253018F420934302089510924302089525
:10016000FC01319690E080E06250770B96171706FD
:1001700024F4219182279F5FF9CF80830895CF9344
:10018000DF9300D000D01F92CDB7DEB7198222E5F1
:100190002A831D829C0136952795369527952B83BA
:1001A000880F8670806898E0499FA0011124482B31
:1001B000642B6C8365E0CE0101960E94B00065E07F
:1001C000CE0101960E948C000F900F900F900F901F
:1001D0000F90DF91CF9108958F77982F20E041E025
:1001E000992329F024273FEF390F9323F9CF2111C9
:1001F000806808950F931F93CF93DF931F92CDB71D
:10020000DEB7809189018F5FF1F080938901909131
:100210008901892F8F719032F0F0981B392F380F98
:10022000282F2F71E22FF0E0EE0FFF1FE553FE4F56
:10023000408151814F3F5F4F51F4803231F4309310
:10024000890181E008C081E0E0CF8F5FE7CF309384
:1002500089012223B1F3182F1F71812F80640E941E
:10026000EC00082F8093C801812F0E94EC0080933E
:10027000C901812F80660E94EC008093CA01098326
:1002800061E0CE0101960E948C008091C60190E051
:10029000AC014F5F5F4F2BE0249FF001259FF00DD5
:1002A0001124ED57FE4F1082289FF001299FF00D79
:1002B0001124ED57FE4F8091C80184870F90DF9184
:1002C000CF911F910F910895CF93DF9300D000D06D
:1002D000CDB7DEB78091840181110EC081E68A839B
:1002E00082E88B8383EE8C838091CA01898364E0EA
:1002F000CE0101960E948C000F900F900F900F90EE
:10030000DF91CF910895833081F028F4813099F006
:100310008230A9F008958730A9F08830C9F0843080
:10032000B1F4809180008F7D03C0809180008F7731
:1003300080938000089584B58F7784BD089584B537
:100340008F7DFBCF8091B0008F778093B0000895B0
:100350008091B0008F7DF9CF1F93CF93DF93282F2B
:1003600030E0F901E255FF4F8491F901E656FF4F65
:10037000D491F901EA57FF4FC491CC23A9F0162F6D
:1003800081110E948301EC2FF0E0EE0FFF1FE45873
:10039000FF4FA591B4918FB7F894EC91111108C05B
:1003A000D095DE23DC938FBFDF91CF911F9108950D
:1003B000DE2BF8CFCF93DF9390E0FC01E656FF4FA2
:1003C00024918A579F4FFC0184918823D1F090E0BB
:1003D000880F991FFC01EE58FF4FA591B491FC01C5
:1003E000E458FF4FC591D491623071F49FB7F894EF
:1003F0003C91822F809583238C93E8812E2B288338
:100400009FBFDF91CF9108958FB7F894EC912E2B79
:100410002C938FBFF6CF3FB7F8948091390190911C
:100420003A01A0913B01B0913C0126B5A89B05C0C3
:100430002F3F19F00196A11DB11D3FBFBA2FA92F63
:10044000982F8827BC01CD01620F711D811D911D60
:1004500042E0660F771F881F991F4A95D1F70895CC
:100460008F929F92AF92BF92CF92DF92EF92FF92C4
:100470004B015C010E940B026B017C010E940B028C
:100480006C197D098E099F09683E734081059105AD
:10049000A8F321E0821A9108A108B10888EEC80EDD
:1004A00083E0D81EE11CF11C81149104A104B10465
:1004B00029F7FF90EF90DF90CF90BF90AF909F9083
:1004C0008F9008950F931F93CF93DF93EC012981B1
:1004D00030E0F901E255FF4F8491F901E656FF4FF4
:1004E0000491F901EA57FF4F1491112331F1811161
:1004F0000E948301E12FF0E0EE0FFF1FE859FF4F4C
:10050000A591B491EC910E2331E020E009F430E0A4
:10051000832F922F282F21703A81321308C03B81FC
:10052000321781F02B83892B59F083E088832A834B
:10053000DF91CF911F910F91089590E080E0EACF75
:1005400082E0F4CF892B11F081E0F0CF1882EFCF59
:100550000F931F93CF93DF93FC01AC0141545F4F86
:10056000DA019C91692F70E09F01BBE09B9F200DF9
:10057000311D1124D901A857BF4F1C91858111113C
:1005800007C060E0DF91CF911F910F910C94AC01F7
:10059000DF01AF53BF4F0C91E901C00FD11DC75709
:1005A000DF4FC881D0E0011103C0209761F1D16015
:1005B0002C912F5F211798F11C92ABE0A69F900120
:1005C000A79F300D1124E20FF31FE857FF4F108251
:1005D0009F5F953008F5FA01908361E00E94AC01BD
:1005E0008091C1008E7F8093C100D0FF05C08091B3
:1005F000C10081608093C100C093C600DF91CF919C
:100600001F910F910895C1E0CC9326573F4FE90108
:100610002881C22FD0E0CCCFDA011C92DECF2C9300
:10062000DCCF63FF0FC02091020130910301213024
:10063000310541F0909301018093000162E08CE06C
:100640000C94DA0108950F931F93CF93DF932FB784
:10065000F8948091350190913601A0913701B091C5
:1006600038012FBF4091300150913101609132012A
:10067000709133018C019D01041B150B260B370B68
:10068000B901A8014233510561057105D0F080938D
:10069000300190933101A0933201B0933301CFE345
:1006A000D1E0CE010E946202249611E0CF37D1073B
:1006B000C1F78FE791E0DF91CF911F910F910C94DB
:1006C0006202DF91CF911F910F9108951F920F92B7
:1006D0000FB60F9211242F933F938F939F93AF9355
:1006E000BF938091350190913601A0913701B0916F
:1006F00038013091340123E0230F2D3758F501964E
:10070000A11DB11D209334018093350190933601D2
:10071000A0933701B09338018091390190913A014B
:10072000A0913B01B0913C010196A11DB11D8093A8
:10073000390190933A01A0933B01B0933C01BF91E2
:10074000AF919F918F913F912F910F900FBE0F907E
:100750001F90189526E8230F0296A11DB11DD2CF38
:100760001F920F920FB60F9211240F931F932F9386
:100770003F934F935F936F937F938F939F93AF9329
:10078000BF93CF93DF93EF93FF93C0913D01D0913F
:100790003E01209709F477C09091C1008E010D5B56
:1007A0001F4FF8018081282F30E091FF81C0A901FF
:1007B0004F5F5F4F9BE0949FF001959FF00D1124D8
:1007C000EC0FFD1F10828091C600929FF001939F55
:1007D000F00D1124EC0FFD1F84879981992311F0EE
:1007E0009FEF99838F3529F48FEF8983CE010E9483
:1007F000A802F8012081822F90E0BC016F5F7F4F3B
:100800004BE0469FF001479FF00D1124EC0FFD1FB8
:100810003081323090F1489FF001499FF00D112452
:10082000EC0FFD1F85858F7090E002963817190632
:1008300031F42F5FF801253008F054C02083F8010F
:100840009081292F30E08BE0FE01989FE00DF11D93
:10085000112493859A3088F01386829FF001839F3C
:10086000F00D1124EC0FFD1F1486158616861786D1
:10087000108A118A128A138A148A0E940B026F83CB
:10088000788789879A87FF91EF91DF91CF91BF9108
:10089000AF919F918F917F916F915F914F913F9118
:1008A0002F911F910F910F900FBE0F901F901895D1
:1008B0004BE0DE01849FA00DB11D11241B96EC912D
:1008C0001B97EF5F1B96EC935091C600429FC001AF
:1008D000439F900D11248C0F9D1FE80FF92FF11DE0
:1008E000548787CF1082ABCF1F920F920FB60F9213
:1008F00011242F933F934F935F936F937F938F9325
:100900009F93AF93BF93EF93FF9380913D0190919D
:100910003E01009771F0FC0121812223D9F0EF53B1
:10092000FF4F2081211116C060E0FC0185810E94EB
:10093000AC01FF91EF91BF91AF919F918F917F910A
:100940006F915F914F913F912F910F900FBE0F903C
:100950001F9018950E94A802ECCF1F93CF93DF93AE
:10096000EC01162F1A821B8262E0812F0E94DA01AD
:10097000198381E088838A83DF91CF911F91089545
:10098000CF93DF93CDB7DEB7A2970FB6F894DEBF53
:100990000FBECDBF789484B5826084BD84B581607C
:1009A00084BD85B5826085BD85B5816085BD80913A
:1009B0006E00816080936E001092810080918100B2
:1009C00082608093810080918100816080938100AA
:1009D000809180008160809380008091B10084606C
:1009E0008093B1008091B00081608093B0008091CD
:1009F0007A00846080937A0080917A00826080938C
:100A00007A0080917A00816080937A0080917A00E8
:100A1000806880937A001092C10061E082E00E94B9
:100A2000DA0162E083E00E94DA0162E084E00E9481
:100A3000DA0162E085E00E94DA0162E086E00E946D
:100A4000DA0162E087E00E94DA0162E088E00E9459
:100A5000DA0162E089E00E94DA0162E08AE00E9445
:100A6000DA0162E08BE00E94DA0162E08CE00E9431
:100A7000DA0162E08EE00E94DA0162E08FE00E941B
:100A8000DA0162E080E10E94DA0162E081E10E9425
:100A9000DA0162E082E10E94DA0161E083E10E9412
:100AA000DA0162E08DE00E94DA010E94230364E62D
:100AB00070E080E090E00E9430020E94230384E016
:100AC0008093870182E08093880181E08093830195
:100AD00061E082E00E94DA0160E0809188010E947A
:100AE000AC01F8941092C5008FE08093C40010927E
:100AF000C0008CED8093C10086E08093C2007894A2
:100B000083E891E090933E0180933D018091040140
:100B100090910501A0910601B09107018F839887FC
:100B2000A987BA878091080190910901A0910A01D3
:100B3000B0910B018B879C87AD87BE8780910C019C
:100B400090910D01A0910E01B0910F018F87988BAC
:100B5000A98BBA8B8091100190911101A091120183
:100B6000B09113018B8B9C8BAD8BBE8B809114014C
:100B700090911501A0911601B09117018F8B988F5C
:100B8000A98FBA8F8091180190911901A0911A0133
:100B9000B0911B018B8F9C8FAD8FBE8F80911C01FC
:100BA00090911D01A0911E01B0911F018F8F98A3FC
:100BB000A9A3BAA3209020013090210140902201E6
:100BC0006090230170902401809025010E942303EE
:100BD0006FE3C62E61E0D62E01E010E099249394D5
:100BE000D6015C90B3E05B1202C0F6019082D601A0
:100BF0008C91823009F41C928EEF850D823080F545
:100C0000E0900201F09003015801B1E0AB1AB10885
:100C1000C5010E94BB0CEA94EF2809F07AC08983D1
:100C2000C8010E94BB0C8A83E980FA80BF2CBB1CE0
:100C3000BB24BB1CF3E0FF2222E0521201C0B92406
:100C400041E06B2DC7010E94BF0064E170E080E0CD
:100C500090E00E94300240E06B2DC7010E94BF006F
:100C600044E0C40ED11C0E5F1F4F0F31110509F077
:100C7000B7CF80917F01833019F491E090937F0189
:100C800090917F01923009F05EC010927F01813017
:100C900009F05DC081E090E0909303018093020130
:100CA00080917F01833019F491E090937F019091BE
:100CB0007F01923011F410927F01811104C01092D3
:100CC0000301109202012091C5018091C6012817ED
:100CD00009F461C2822F90E0ABE02A9F90011124B9
:100CE0002D573E4FD9011D96EC914E2F4F7050E07D
:100CF0004F5F5F4F10E0F0E0612F70E0461757073D
:100D000044F1620F731FDB011D966C91F6271F5F84
:100D1000F3CF33E0E0900001F0900101531202C0E4
:100D20006894F7F88E1521F06E2DC5010E94C30C52
:100D3000C8010E94BB0CF81609F492CF6F2DC801B0
:100D40000E94C30C8DCF813009F0AACFA3CF80E0E1
:100D5000AECFF111B5C0E23509F446C438F5E23240
:100D600009F46CC230F4E13209F4B9C00E946401A4
:100D7000AEC1E33209F47FC2E234C1F720E030E0D3
:100D8000232B09F4A4C1209184012111A4C12BE0DB
:100D9000289FF001299FF00D1124ED57FE4F478544
:100DA00066858091CA010E94000091C1E33E09F46A
:100DB00085C298F5E038D1F62BE0289FF001299FF5
:100DC000F00D1124ED57FE4F8685803879F680911D
:100DD0008601813009F47BC180918401811169C24F
:100DE0008F859889A989BA8989839A83AB83BC83C3
:100DF00064E0CE0101960E948C0081E08093860120
:100E000080918401811167C180E090E0892B09F411
:100E100082C181E00E9400005AC1E43E09F4CCC2C4
:100E2000E63E09F0A3CF2BE0289FF001299FF00DAB
:100E30001124ED57FE4F2685203309F048C1078560
:100E400010E0102F002700271F732089020F111DAB
:100E50002189E22EF12CFE2CEE24EE24B3E0FB22BD
:100E60003289E30EF11C2C7F2C3E89F420E030E027
:100E7000232B69F02BE0289FF001299FF00D11240E
:100E8000ED57FE4F4389B701C8010E940000E09171
:100E9000C5012BE0E29FF0011124ED57FE4F81893F
:100EA0008C7F883E09F013C180E090E0892B09F423
:100EB0000EC143894F70B701C8010E94000007C1ED
:100EC00080918401811127C181E68A8380E88B8328
:100ED00081EE8C838091CA01898364E016C42091DD
:100EE00084012111F8C02BE0289FF001299FF00D0B
:100EF0001124ED57FE4F86858432F9F487858530BD
:100F0000E1F4E091860181E0E93020F4F0E0EA5D6F
:100F1000FE4F80811D8292E69A8392E29B8390919C
:100F2000CA0199838C8365E0CE0101960E94B000CE
:100F300065E0CE0101960E948C00E091C501BBE006
:100F4000EB9FF0011124ED57FE4F86858132C9F4E5
:100F50009785911116C01E821D8293E69A838B831A
:100F600086E38C8380E18D838091CA01898366E06A
:100F7000CE0101960E94B00066E0CE0101960E946B
:100F80008C00E091C5012BE0E29FF0011124ED57A8
:100F9000FE4F8685803841F58785813A09F056C035
:100FA00080918601823009F451C0809184018111C1
:100FB00023C18F8D98A1A9A1BAA189839A83AB83FC
:100FC000BC8364E0CE0101960E948C0082E0809395
:100FD000860180918401811107C080E090E0892B17
:100FE00019F082E00E940000E091C5019BE0E99FBA
:100FF000F0011124ED57FE4F8685813839F587853C
:10100000803A09F056C080918601882309F451C0C6
:10101000809184018111F5C08F89988DA98DBA8D39
:1010200089839A83AB83BC8364E0CE0101960E94DE
:101030008C001092860180918401811107C080E0AC
:1010400090E0892B19F080E00E940000E091C5013A
:101050009BE0E99FF0011124ED57FE4F868580311A
:1010600041F58785813329F59091CA012091450288
:1010700030914602809147022115310509F4C6C01E
:101080001E821D8233E63A8334E13B8399832C83AD
:101090008D8366E0CE0101960E94B00066E0CE012D
:1010A00001960E948C001092460210924502109206
:1010B0004702E091CA01EF71F0E0EE0FFF1FE55328
:1010C000FE4F80819181019611F4118210828091EE
:1010D0008401882301F1E091C5019BE0E99FF001C3
:1010E0001124ED57FE4F8485803609F008C38585AD
:1010F000813609F0BFC28685813009F08EC28785AE
:10110000803649F41092860180E090E0892B19F036
:1011100080E00E9400008091C501282F30E0A901E5
:101120004F5F5F4F9BE0949FF001959FF00D11245E
:10113000ED57FE4F1082929FF001939FF00D112406
:10114000ED57FE4F1486158616861786108A118A6B
:10115000128A138A148A8F5F853008F02DC380931A
:10116000C5018091840181112AC383E891E00E9426
:10117000A8020E94FA0083E891E00E94A8020E945F
:101180000B0260938A0170938B0180938C01909382
:101190008D011092850180918401811110C30E94FC
:1011A0000B0200918A0110918B0120918C013091EA
:1011B0008D01601B710B820B930B643F71408105A5
:1011C000910590F00E94FA0083E891E00E94A80245
:1011D0000E940B0260938A0170938B0180938C01B3
:1011E00090938D011092850180E090E0892B09F4A5
:1011F000EDCC0E940000DECC8B8D9C8DAD8DBE8D24
:10120000DCCE8B899C89AD89BE890ACF1C821B826A
:1012100021E62A832FE12B8399838F3F21F483E1F9
:101220008B831092470264E0CE0101960E94B000C9
:1012300064E0CE0101960E948C003BCF2BE0289FFA
:10124000F001299FF00D1124ED57FE4F8685853161
:1012500009F08CCD1092460210924502109247027E
:1012600080E090E0892B09F432CF87858150990B7B
:101270000E9400002CCF2BE0289FF001299FF00D49
:101280001124ED57FE4F8685863109F06FCD1092FF
:101290004602109245021092470280E090E0892BAE
:1012A00009F415CF878560898150990B0E94000051
:1012B0000ECF69827A828B8263E09BCD209184017C
:1012C000211109CF2BE0289FD001299FB00D1124B7
:1012D000AD57BE4F1E962C91283009F44FC0D8F45C
:1012E0002223A9F1273009F041CD1B821C821D82E7
:1012F0001E8283EE8A8380E58B838091CA01898375
:1013000066E0CE0101960E94B00066E0CE01019633
:101310000E948C00DCCE2930C1F1203F09F026CD9F
:1013200020E030E0232B09F4F6CE2BE0289FF001DB
:10133000299FF00D1124ED57FE4F67856F7380894B
:10134000762F682F8091CA010E940000C0CE20E055
:1013500030E0232B09F4DFCE2BE0289FF001299FFA
:10136000F00D1124ED57FE4F67856F738089762F3E
:10137000682F8091CA010E940000A9CE1B821C82A6
:101380001D821E82EA8381E5B7CF20E030E0232B67
:1013900009F4C1CE2BE0289FF001299FF00D112404
:1013A000ED57FE4F67856F738089762F682F809188
:1013B000CA010E9400008BCE2BE0289FF001299FDC
:1013C000F00D1124ED57FE4F87858F739089892783
:1013D00098278927009709F450C02091CA012F71DE
:1013E000A22E022F10E0000F111FF801E553FE4F4F
:1013F000208131818217930709F43FC09183808354
:10140000ADECEA2EA1E0FA2EBB24B3948F01B3EE2B
:101410009B2E80E4582EAB1449F1D701CD90DC907F
:10142000F80180819181C816D90601F58B2D80665F
:101430000E94EC001B821C821D821E829A825B82AB
:101440008983F4E6CF16D10418F08D2D806C8C833F
:10145000CD8266E0CE0101960E94B00066E0CE012A
:1014600001960E948C00D7011D921C92B394B2E0A9
:10147000EB0EF11CE0E2BE12CECFE091C5012E2FA3
:1014800030E04BE0E49FF0011124ED57FE4F8685DC
:10149000803179F480E090E0892B09F418CE8785BB
:1014A0008F73908961898927982789270E94000076
:1014B0000ECE813179F480E090E0892B09F407CEDB
:1014C00087858F73908961898927982789270E944A
:1014D0000000FDCD823179F480E090E0892B09F4A1
:1014E000F6CD87858F739089618989279827892709
:1014F0000E940000ECCD833179F480E090E0892BEC
:1015000009F4E5CD87858F739089618989279827AC
:1015100089270E940000DBCD803279F480E090E0E2
:10152000892B09F4D4CD87858F73908961898927A8
:10153000982789270E940000CACD813279F480E083
:1015400090E0892B09F4C3CD87858F7390896189D9
:101550008927982789270E940000B9CD823279F423
:1015600080E090E0892B09F4B2CD87858F73908954
:1015700061898927982789270E940000A8CD833296
:1015800011F0833FB9F480E090E0892B09F49FCDFE
:101590008BE0829FF001839FF00D1124ED57FE4FE9
:1015A00087858F73908961898927982789270E9469
:1015B00000008DCD883209F0D9CB80E090E0892BF6
:1015C00009F485CD8BE0829FF001839FF00D1124FB
:1015D000ED57FE4F87858F739089618989279827FA
:1015E00089270E94000073CD2BE0289FF001299FDE
:1015F000F00D1124ED57FE4F6785268584E0289F66
:1016000090011124862F90E09595879583709927F6
:10161000822B932B0E9411035ACD81110EC0878516
:10162000813609F078CD82E08093860180E090E0F9
:10163000892B09F470CD82E06CCD883051F484E0C0
:101640008093860180E090E0892B09F464CD84E0EA
:1016500060CD823009F05FCD8785833609F05BCDA0
:1016600088E08093860180E090E0892B09F453CDD7
:1016700088E04FCD813889F4868581114CCD8785EE
:10168000813809F048CD81E08093860180E090E0C8
:10169000892B09F440CD81E03CCD982F907F903488
:1016A00009F039CD86958770F82E03E010E0EE241E
:1016B000E3945BE0D52EFE1408F42DCDA0E0B0E05D
:1016C000AB2BC9F08091C501F801D89EE00DF11D4A
:1016D0001124ED57FE4F64852385B4E02B9F9001C4
:1016E0001124862F90E09595879583709927822BFA
:1016F000932B0E940000E3940E5F1F4FDCCF8A39CA
:1017000049F429823A824B8263E0CE0101960E941D
:101710008C0001CD85858236C1F0833609F0FBCC83
:101720008685813209F0F7CC80918501813009F0FE
:10173000F2CC82E0809385018B859C85AD85BE854A
:1017400089839A83AB83BC83C8CB8685823209F0B8
:10175000E2CC8785813001F168F08230A9F08830D1
:1017600019F180918501823009F0D5CC8FEF8093FB
:101770008501D1CC1092860180E090E0892B89F31D
:1017800080E00E940000EDCF8093860180E090E031
:10179000892B39F382E0F5CF8093860180E090E0D9
:1017A000892BF9F281E0EDCF8093860180E090E013
:1017B000892BB9F288E0E5CF1092C501D2CC809197
:1017C0008501811110C081E0809385018F8198850A
:1017D000A985BA8589839A83AB83BC8364E0CE01F3
:1017E00001960E948C000E940B0200918A011091C8
:1017F0008B0120918C0130918D01601B710B820B4C
:10180000930B603D77408105910508F4EDCC0E9473
:101810000B0260938A0170938B0180938C019093EB
:101820008D0180918301882309F4DECC80918401AD
:10183000882309F4D9CC815080938401D5CCCF93EF
:10184000DF9363E08FE391E00E94AD0464E083E402
:1018500091E00E94AD0465E087E491E00E94AD0450
:1018600066E08BE491E00E94AD0467E08FE491E0D4
:101870000E94AD0468E083E591E00E94AD0469E058
:1018800087E591E00E94AD046AE08BE591E00E945B
:10189000AD046BE08FE591E00E94AD046CE083E65F
:1018A00091E00E94AD046EE087E691E00E94AD04F5
:1018B0006FE08BE691E00E94AD0460E18FE691E07D
:1018C0000E94AD0461E183E791E00E94AD0462E112
:1018D00087E791E00E94AD0463E18BE791E00E940D
:1018E000AD046DE08FE791E00E94AD041092890194
:1018F0008FEF809384011092850181E080938301B2
:1019000082E08093860184E080938701ABECB1E0B4
:10191000E3E8F1E08FEF9FEF8D939D9322E0AB30F2
:10192000B207D1F710924202109244021092430281
:101930001092C5011092C7011092C601DF01A8578D
:10194000BF4F1C921386AC57B1098AE0ED01C35812
:10195000DF4F18821D928150C9F73B9681E0EA3B28
:10196000F80761F710924602109245021092470262
:10197000DF91CF910895F999FECF92BD81BDF89A7C
:10198000992780B50895262FF999FECF1FBA92BDE9
:1019900081BD20BD0FB6F894FA9AF99A0FBE019650
:1019A0000895EE0FFF1F0590F491E02D0994F8942F
:0219B000FFCF67
:1019B200090001000021210000212405608100812D
:1019C200002181A060610160002180A1606100614D
:1019D20000202000808000010101020101010800B5
:00000001FF
