:020000040000FA
:100000000C9462000C948A000C948A000C948A0070
:100010000C948A000C948A000C948A000C948A0038
:100020000C948A000C948A000C948A000C948A0028
:100030000C948A000C948A000C948A000C948A0018
:100040000C946D030C948A000C94B7030C948A00F2
:100050000C947B040C948A000C948A000C948A0003
:100060000C948A000C948A000000000024002700F1
:100070002A0000000000250028002B0000000000DE
:1000800023002600290004040404040404040202DA
:100090000202020203030303030301020408102007
:1000A0004080010204081020010204081020000012
:1000B0000008000201000003040700000000000027
:1000C00000008D0C11241FBECFEFD8E0DEBFCDBFE6
:1000D00011E0A0E0B1E0EEE8FAE102C005900D9277
:1000E000A033B107D9F722E0A0E3B1E001C01D922F
:1000F000AD34B207E1F710E0C2E6D0E004C02197CA
:10010000FE010E943F0DC136D107C9F70E94C70406
:100110000C94450D0C94000020914802EBE0E29F06
:10012000D0011124A05FBD4F6C932E9FF0011124CC
:1001300050E040E0DC013D91CD01DA01AE0FBF1F80
:10014000AF5EBD4F3C934F5F5F4F461798F32F5FF5
:10015000253018F42093480208951092480208951B
:10016000FC01319690E080E06250770B96171706FD
:1001700024F4219182279F5FF9CF80830895CF9344
:10018000DF9300D000D01F92CDB7DEB7198222E5F1
:100190002A831D829C0136952795369527952B83BA
:1001A000880F8670806898E0499FA0011124482B31
:1001B000642B6C8365E0CE0101960E94B00065E07F
:1001C000CE0101960E948C000F900F900F900F901F
:1001D0000F90DF91CF9108958F77982F20E041E025
:1001E000992329F024273FEF390F9323F9CF2111C9
:1001F000806808950F931F93CF93DF931F92CDB71D
:10020000DEB780918E018F5FF1F080938E01909127
:100210008E01892F8F719032F0F0981B392F380F93
:10022000282F2F71E22FF0E0EE0FFF1FE053FE4F5B
:10023000408151814F3F5F4F51F4803231F4309310
:100240008E0181E008C081E0E0CF8F5FE7CF30937F
:100250008E012223B1F3182F1F71812F80640E9419
:10026000EC00082F8093CD01812F0E94EC00809339
:10027000CE01812F80660E94EC008093CF0109831C
:1002800061E0CE0101960E948C008091CB0190E04C
:10029000AC014F5F5F4F2BE0249FF001259FF00DD5
:1002A0001124E857FE4F1082289FF001299FF00D7E
:1002B0001124E857FE4F8091CD0184870F90DF9184
:1002C000CF911F910F910895CF93DF9300D000D06D
:1002D000CDB7DEB78091890181110EC081E68A8396
:1002E00082E88B8383EE8C838091CF01898364E0E5
:1002F000CE0101960E948C000F900F900F900F90EE
:10030000DF91CF910895833081F028F4813099F006
:100310008230A9F008958730A9F08830C9F0843080
:10032000B1F4809180008F7D03C0809180008F7731
:1003300080938000089584B58F7784BD089584B537
:100340008F7DFBCF8091B0008F778093B0000895B0
:100350008091B0008F7DF9CFCF93DF93282F30E0CD
:10036000F901E255FF4F8491F901E656FF4FD49110
:10037000F901EA57FF4FC491CC23A1F081110E94EB
:100380008301EC2FF0E0EE0FFF1FE458FF4FA59123
:10039000B491EC91ED2381E090E009F480E0DF91ED
:1003A000CF91089580E090E0FACF1F93CF93DF9331
:1003B000282F30E0F901E255FF4F8491F901E6560C
:1003C000FF4FD491F901EA57FF4FC491CC23A9F014
:1003D000162F81110E948301EC2FF0E0EE0FFF1F1A
:1003E000EE58FF4FA591B4918FB7F894EC9111118D
:1003F00008C0D095DE23DC938FBFDF91CF911F9192
:100400000895DE2BF8CFCF93DF9390E0FC01E65602
:10041000FF4F24918A579F4FFC0184918823D1F08C
:1004200090E0880F991FFC01E859FF4FA591B49106
:10043000FC01EE58FF4FC591D491623071F49FB723
:10044000F8943C91822F809583238C93E8812E2B06
:1004500028839FBFDF91CF9108958FB7F894EC91D7
:100460002E2B2C938FBFF6CF3FB7F8948091350198
:1004700090913601A0913701B091380126B5A89B23
:1004800005C02F3F19F00196A11DB11D3FBFBA2F26
:10049000A92F982F8827BC01CD01620F711D811DE6
:1004A000911D42E0660F771F881F991F4A95D1F76B
:1004B00008958F929F92AF92BF92CF92DF92EF9268
:1004C000FF924B015C010E9434026B017C010E948F
:1004D00034026C197D098E099F09683E73408105BD
:1004E0009105A8F321E0821A9108A108B10888EECD
:1004F000C80E83E0D81EE11CF11C81149104A104F4
:10050000B10429F7FF90EF90DF90CF90BF90AF90AC
:100510009F908F900895CF93DF93EC0189810E9483
:10052000AC019C0191E02115310509F490E08A812C
:10053000891309C08B81891751F09B8383E0232B9A
:1005400009F482E088839A83DF91CF91089581E056
:10055000232BC1F71882F7CF0F931F93CF93DF930D
:10056000FC01AC0141545F4FDA019C91692F70E0AE
:100570009F01BBE09B9F200D311D1124D901A8577D
:10058000BF4F1C918581111107C060E0DF91CF91B1
:100590001F910F910C94D501DF01AF53BF4F0C9108
:1005A000E901C00FD11DC757DF4FC881D0E001114D
:1005B00003C0209761F1D1602C912F5F211798F132
:1005C0001C92ABE0A69F9001A79F300D1124E20F73
:1005D000F31FE857FF4F10829F5F953008F5FA012F
:1005E000908361E00E94D5018091C1008E7F80934D
:1005F000C100D0FF05C08091C10081608093C1001F
:10060000C093C600DF91CF911F910F910895C1E073
:10061000CC9326573F4FE9012881C22FD0E0CCCFA1
:10062000DA011C92DECF2C93DCCF63FF12C021E0F5
:100630002093830120910201309103012130310583
:1006400041F0909301018093000162E08CE00C94F2
:10065000030208950F931F93CF93DF932FB7F8945E
:1006600080913B0190913C01A0913D01B0913E01F0
:100670002FBF409130015091310160913201709152
:1006800033018C019D01041B150B260B370BB9019F
:10069000A8014233510561057105D0F08093300106
:1006A00090933101A0933201B0933301CFE3D1E0B5
:1006B000CE010E948B02249611E0CF37D107C1F7FB
:1006C0008FE791E0DF91CF911F910F910C948B02F6
:1006D000DF91CF911F910F9108951F920F920FB646
:1006E0000F9211242F933F938F939F93AF93BF93B8
:1006F00080913B0190913C01A0913D01B0913E0160
:100700003091340123E0230F2D3758F50196A11DB8
:10071000B11D2093340180933B0190933C01A09341
:100720003D01B0933E018091350190913601A09139
:100730003701B09138010196A11DB11D809335019B
:1007400090933601A0933701B0933801BF91AF91D8
:100750009F918F913F912F910F900FBE0F901F90FF
:10076000189526E8230F0296A11DB11DD2CF1F9226
:100770000F920FB60F9211240F931F932F933F9355
:100780004F935F936F937F938F939F93AF93BF9399
:10079000CF93DF93EF93FF93C0913901D0913A014A
:1007A000209709F477C09091C1008E010D5B1F4F17
:1007B000F8018081282F30E091FF81C0A9014F5FAF
:1007C0005F4F9BE0949FF001959FF00D1124EC0F7B
:1007D000FD1F10828091C600929FF001939FF00D43
:1007E0001124EC0FFD1F84879981992311F09FEF4D
:1007F00099838F3529F48FEF8983CE010E94AC0253
:10080000F8012081822F90E0BC016F5F7F4F4BE0A9
:10081000469FF001479FF00D1124EC0FFD1F308122
:10082000323090F1489FF001499FF00D1124EC0FF8
:10083000FD1F85858F7090E002963817190631F4F8
:100840002F5FF801253008F054C02083F801908113
:10085000292F30E08BE0FE01989FE00DF11D11245F
:1008600093859A3088F01386829FF001839FF00D64
:100870001124EC0FFD1F1486158616861786108A24
:10088000118A128A138A148A0E9434026F8378872D
:1008900089879A87FF91EF91DF91CF91BF91AF91B7
:1008A0009F918F917F916F915F914F913F912F9188
:1008B0001F910F910F900FBE0F901F9018954BE056
:1008C000DE01849FA00DB11D11241B96EC911B9796
:1008D000EF5F1B96EC935091C600429FC001439F6F
:1008E000900D11248C0F9D1FE80FF92FF11D5487D7
:1008F00087CF1082ABCF1F920F920FB60F921124A9
:100900002F933F934F935F936F937F938F939F9317
:10091000AF93BF93EF93FF938091390190913A0188
:10092000009771F0FC0121812223D9F0EF53FF4F92
:100930002081211116C060E0FC0185810E94D50153
:10094000FF91EF91BF91AF919F918F917F916F91A7
:100950005F914F913F912F910F900FBE0F901F907D
:1009600018950E94AC02ECCF1F93CF93DF93EC015C
:10097000162F1A821B8262E0812F0E9403021983C4
:1009800081E088838A83DF91CF911F910895CF936F
:10099000DF93CDB7DEB7A5970FB6F894DEBF0FBED5
:1009A000CDBF789484B5826084BD84B5816084BDF8
:1009B00085B5826085BD85B5816085BD80916E00FD
:1009C000816080936E00109281008091810082602E
:1009D000809381008091810081608093810080916B
:1009E00080008160809380008091B100846080935A
:1009F000B1008091B00081608093B00080917A0056
:100A0000846080937A0080917A00826080937A007B
:100A100080917A00816080937A0080917A0080686A
:100A200080937A001092C10061E082E00E9403028C
:100A300062E083E00E94030262E084E00E9403021D
:100A400062E085E00E94030262E086E00E94030209
:100A500062E087E00E94030262E088E00E940302F5
:100A600062E089E00E94030262E08AE00E940302E1
:100A700062E08BE00E94030262E08CE00E940302CD
:100A800062E08EE00E94030262E08FE00E940302B7
:100A900062E080E10E94030262E081E10E940302C1
:100AA00062E082E10E94030261E083E10E940302AE
:100AB00062E08DE00E94030261E083E10E94030294
:100AC00061E083E10E94D50164E670E080E090E09F
:100AD0000E94590260E083E10E94D50164E670E063
:100AE00080E090E00E94590261E083E10E94D5011C
:100AF00064E670E080E090E00E94590260E083E1EB
:100B00000E94D50164E670E080E090E00E94590206
:100B100061E083E10E94D50164E670E080E090E04E
:100B20000E94590260E083E10E94D5010E942A03DD
:100B300064E670E080E090E00E9459020E942A037F
:100B400064E670E080E090E00E9459020E942A036F
:100B500064E670E080E090E00E9459020E942A035F
:100B600064E670E080E090E00E9459020E942A034F
:100B700084E080938C0182E080938D0181E08093FA
:100B8000880161E082E00E94030260E080918D01B3
:100B90000E94D501F8941092C5008FE08093C400A4
:100BA0001092C0008CED8093C10086E08093C2005B
:100BB000789488E891E090933A0180933901C0904D
:100BC0000401D0900501E0900601F0900701CA866B
:100BD000DB86EC86FD86C0900801D0900901E0908C
:100BE0000A01F0900B01CE86DF86E88AF98AC09070
:100BF0000C01D0900D01E0900E01F0900F01CA8A17
:100C0000DB8AEC8AFD8AC0901001D0901101E0903F
:100C10001201F0901301CE8ADF8AE88EF98EC0901F
:100C20001401D0901501E0901601F0901701CA8EC2
:100C3000DB8EEC8EFD8EC0901801D0901901E090F3
:100C40001A01F0901B01CE8EDF8EE8A2F9A2C090AF
:100C50001C01D0901D01E0901E01F0901F01CAA25E
:100C6000DBA2ECA2FDA200E010E0609020017090F9
:100C70002101809022012090230130902401409096
:100C800025012FB7F89480913B0190913C01A091F0
:100C90003D01B0913E012FBF4091840150918501EB
:100CA00060918601709187016C017D01C41AD50A9B
:100CB000E60AF70AB701A601483C5105610571052E
:100CC00098F08093840190938501A0938601B0935E
:100CD000870180918301882309F4A8C010928301C1
:100CE00061E083E10E94D5010E942A036FE3A62EF2
:100CF00061E0B62EEE24E394F12C55245394D501F3
:100D0000BC91BF83B33011F4F5015082D5018C91B1
:100D1000823009F41C928F818250823080F5C0901D
:100D20000201D0900301F7013197F987E887CF01DD
:100D30000E94290DCA94CD2809F080C08983C7017B
:100D40000E94290D8A83C980DA809D2C991C9924E0
:100D5000991C23E0D2223F81323009F4952441E0EE
:100D6000692DC6010E94BF0064E170E080E090E060
:100D70000E94590240E0692DC6010E94BF0084E034
:100D8000A80EB11C92E0E90EF11CAFE1EA16F104E5
:100D900009F0B5CFE1E0F0E0F0930301E093020148
:100DA00080917F01833019F481E080937F018091ED
:100DB0007F01823011F410927F0180917F01833096
:100DC00019F491E090937F0190917F01923011F49A
:100DD00010927F01811104C0109203011092020150
:100DE0002091CA018091CB01281709F45FC2822F9C
:100DF00090E0FBE02F9F9001112428573E4FD9012E
:100E00001D96EC914E2F4F7050E04F5F5F4FF12CCD
:100E1000F0E06F2D70E0461757075CF1620F731F0B
:100E2000DB011D966C91F627F394F3CF83E10E94CA
:100E3000AC01019709F058CF60E053CF4F81C090CB
:100E40000001D0900101433011F46894D7F88C155B
:100E500029F06C2D888599850E94310DC7010E946B
:100E6000290DD81609F48BCF6D2DC7010E94310DC5
:100E700086CFF111B5C0E23509F43FC438F5E2324E
:100E800009F467C230F4E13209F4B9C00E94640188
:100E9000ABC1E33209F47AC2E234C1F720E030E0BA
:100EA000232B09F4A1C1209189012111A1C12BE0BB
:100EB000289FF001299FF00D1124E857FE4F478528
:100EC00066858091CF010E9400008EC1E33E09F447
:100ED00080C290F5E038D1F62BE0289FF001299FE1
:100EE000F00D1124E857FE4F8685803879F6809101
:100EF0008B01813009F478C180918901811164C22C
:100F0000CA88DB88EC88FD88C982DA82EB82FC82A1
:100F100064E0CE0101960E948C0081E080938B01F9
:100F200080918901811164C10115110509F47EC107
:100F300081E00E94000058C1E43E09F4CAC2E63EC6
:100F400009F0A4CF2BE0289FF001299FF00D112478
:100F5000E857FE4F2685203309F046C1E784F12C7F
:100F6000FE2CEE24EE244FE3F4222089E20EF11C45
:100F70002189C22ED12CDC2CCC24CC24A3E0DA2273
:100F80003289C30ED11C2C7F2C3E89F420E030E046
:100F9000232B69F02BE0289FF001299FF00D1124ED
:100FA000E857FE4F4389B601C7010E940000E09157
:100FB000CA01BBE0EB9FF0011124E857FE4F818985
:100FC0008C7F883E09F010C180E090E0892B09F405
:100FD0000BC143894F70B601C7010E94000004C1D4
:100FE00080918901811122C181E68A8380E88B8307
:100FF00081EE8C838091CF01898364E0F8C32091D6
:1010000089012111F5C02BE0289FF001299FF00DE7
:101010001124E857FE4F86858432F9F487858530A0
:10102000E1F4E0918B0181E0E93020F4F0E0EA5D49
:10103000FE4F80811D8292E69A8392E29B8390917B
:10104000CF0199838C8365E0CE0101960E94B000A8
:1010500065E0CE0101960E948C00E091CA01BBE0E0
:10106000EB9FF0011124E857FE4F86858132C9F4C9
:101070009785911116C01E821D8293E69A838B83F9
:1010800086E38C8380E18D838091CF01898366E044
:10109000CE0101960E94B00066E0CE0101960E944A
:1010A0008C00E091CA012BE0E29FF0011124E85787
:1010B000FE4F8685803839F58785813A09F053C01F
:1010C00080918B01823009F44EC080918901811199
:1010D0001EC1CAA0DBA0ECA0FDA0C982DA82EB820F
:1010E000FC8264E0CE0101960E948C0082E0809335
:1010F0008B0180918901811106C00115110519F03C
:1011000082E00E940000E091CA012BE0E29FF00122
:101110001124E857FE4F8685813829F58785803A66
:1011200009F054C080918B01882309F44FC080914D
:1011300089018111F1C0CA8CDB8CEC8CFD8CC982D9
:10114000DA82EB82FC8264E0CE0101960E948C0080
:1011500010928B0180918901811105C00115110543
:1011600011F00E940000E091CA012BE0E29FF00123
:101170001124E857FE4F8685803141F587858133FC
:1011800029F59091CF0120914A0230914B02809134
:101190004C022115310509F4C4C01E821D8233E6BC
:1011A0003A8334E13B8399832C838D8366E0CE01BF
:1011B00001960E94B00066E0CE0101960E948C006C
:1011C00010924B0210924A0210924C02E091CF0111
:1011D000EF71F0E0EE0FFF1FE053FE4F8081918131
:1011E000019611F411821082809189018823F1F017
:1011F000E091CA019BE0E99FF0011124E857FE4FFE
:101200008485803609F0EDC28585813609F0ABC250
:101210008685813009F08AC28785803639F410923C
:101220008B0180E00115110509F08DC28091CA0182
:10123000282F30E0A9014F5F5F4F9BE0949FF001A2
:10124000959FF00D1124E857FE4F1082929FF001F8
:10125000939FF00D1124E857FE4F148615861686CD
:101260001786108A118A128A138A148A8F5F853032
:1012700008F010C38093CA018091890181110DC3C8
:1012800088E891E00E94AC020E94FA0088E891E0B0
:101290000E94AC020E94340260938F01709390010F
:1012A000809391019093920110928A01809189011B
:1012B0008111F3C20E943402C0908F01D09090013E
:1012C000E0909101F09092016C197D098E099F09BF
:1012D000643F71408105910590F00E94FA0088E812
:1012E00091E00E94AC020E94340260938F017093DF
:1012F0009001809391019093920110928A0180E075
:1013000090E0892B09F4BDCC0E940000ACCCCE8CBF
:10131000DF8CE8A0F9A0E1CECE88DF88E88CF98CDC
:101320000ECF1C821B8221E62A832FE12B83998317
:101330008F3F21F483E18B8310924C0264E0CE0155
:1013400001960E94B00064E0CE0101960E948C00DC
:101350003DCF2BE0289FF001299FF00D1124E85785
:10136000FE4F8685853109F091CD10924B02109287
:101370004A0210924C0280E090E0892B09F434CFAD
:1013800087858150990B0E9400002ECF2BE0289F6B
:10139000F001299FF00D1124E857FE4F8685863114
:1013A00009F074CD10924B0210924A0210924C0236
:1013B00080E090E0892B09F417CF87856089815000
:1013C000990B0E94000010CF29823A824B8263E081
:1013D000A0CD2091890121110BCF2BE0289FD001B6
:1013E000299FB00D1124A857BE4F1E962C9128306E
:1013F00009F44FC0D8F42223A9F1273009F046CDD3
:101400001B821C821D821E8283EE8A8380E58B8371
:101410008091CF01898366E0CE0101960E94B000E1
:1014200066E0CE0101960E948C00DECE2930C1F12B
:10143000203F09F02BCD20E030E0232B09F4F6CE3D
:101440002BE0289FF001299FF00D1124E857FE4F53
:1014500067856F738089762F682F8091CF010E94F6
:101460000000C2CE20E030E0232B09F4DFCE2BE0D9
:10147000289FF001299FF00D1124E857FE4F678542
:101480006F738089762F682F8091CF010E940000B2
:10149000ABCE1B821C821D821E82EA8381E5B7CF00
:1014A00020E0E22E20E0F22EEF2809F4BFCE2BE060
:1014B000289FF001299FF00D1124E857FE4F678502
:1014C0006F738089762F682F8091CF010E94000072
:1014D0008BCE2BE0289FF001299FF00D1124E857B7
:1014E000FE4F87858F7390898927982789270097D2
:1014F00009F44CC02091CF012F71522EE22FF0E061
:10150000EE0FFF1FE053FE4F2081318182179307BA
:10151000E9F191838083A2EDCA2EA1E0DA2E99240D
:1015200093947F01951459F1D601AD90BC90F701C9
:1015300080819181A816B90611F5892D80660E94D7
:10154000EC001B821C821D821E82F3EEFA8320E4D3
:101550002B83898334E6A316B10418F08B2D806C9D
:101560008C83AD8266E0CE0101960E94B00066E0F9
:10157000CE0101960E948C00D6011D921C9293947C
:10158000B2E0CB0ED11CE0E29E12CCCFE091CA01BA
:101590002E2F30E04BE0E49FF0011124E857FE4F7E
:1015A0008685803179F480E090E0892B09F41CCEA7
:1015B00087858F73908961898927982789270E9459
:1015C000000012CE813179F480E090E0892B09F49B
:1015D0000BCE87858F739089618989279827892702
:1015E0000E94000001CE823179F480E090E0892BE6
:1015F00009F4FACD87858F739089618989279827A7
:1016000089270E940000F0CD833179F480E090E0DA
:10161000892B09F4E9CD87858F73908961898927A2
:10162000982789270E940000DFCD803279F480E07E
:1016300090E0892B09F4D8CD87858F7390896189D3
:101640008927982789270E940000CECD813279F41E
:1016500080E090E0892B09F4C7CD87858F7390894E
:1016600061898927982789270E940000BDCD823291
:1016700079F480E090E0892B09F4B6CD87858F73EB
:10168000908961898927982789270E940000ACCD1D
:10169000833211F0833FB9F480E090E0892B09F4A4
:1016A000A3CD8BE0829FF001839FF00D1124E857BA
:1016B000FE4F87858F7390896189892798278927AD
:1016C0000E94000091CD883209F0E0CB80E090E0EC
:1016D000892B09F489CD8BE0829FF001839FF00D67
:1016E0001124E857FE4F87858F7390896189892778
:1016F000982789270E94000077CD2BE0289FF001D2
:10170000299FF00D1124E857FE4F6785268584E058
:10171000289F90011124862F90E0959587958370DE
:101720009927822B932B0E9415035ECD81110EC049
:101730008785813609F07ACD82E080938B0101158F
:10174000110509F473CD0E94000070CD883011F4AA
:1017500084E0F3CF823009F069CD8785833609F0C4
:1017600065CD88E0EACF813849F4868581115ECD68
:101770008785813809F05ACD81E0DFCF982F907F9F
:10178000903409F053CD86958770D82E53E0E52E1E
:10179000F12CCC24C3946BE0B62E8091CA0190E06A
:1017A000DC1408F443CDB89EF001B99EF00D11246D
:1017B000E857FE4FEE0DFF1D64852385A4E02A9FA8
:1017C00090011124862F90E0959587958370992735
:1017D000822B932B0E940000C394B2E0EB0EF11C0D
:1017E000DCCF8A3949F469827A828B8263E0CE0148
:1017F00001960E948C001ACD85858236C1F0833611
:1018000009F014CD8685813209F010CD80918A01CE
:10181000813009F00BCD82E080938A01CE84DF8491
:10182000E888F988C982DA82EB82FC82E6CB868579
:10183000823209F0FBCC87858130F1F068F082308C
:10184000A1F0883001F180918A01823009F0EECC5C
:101850008FEF80938A01EACC10928B0180E0011512
:10186000110589F30E940000EECF80938B0182E086
:1018700001151105B9F7E7CF80938B0181E00115C0
:10188000110581F7E0CF80938B0101151105D9F285
:1018900088E0E8CF1092CA01EFCC80918A018111D3
:1018A00010C081E080938A01CA84DB84EC84FD84CB
:1018B000C982DA82EB82FC8264E0CE0101960E944A
:1018C0008C000E943402C0908F01D0909001E09073
:1018D0009101F09092016C197D098E099F09603D7C
:1018E00077408105910508F40ACD0E943402609387
:1018F0008F01709390018093910190939201809158
:101900008801882309F4FBCC80918901882309F49C
:10191000F6CC815080938901F2CCCF93DF9363E0C2
:101920008FE391E00E94B40464E083E491E00E94BC
:10193000B40465E087E491E00E94B40466E08BE4BF
:1019400091E00E94B40467E08FE491E00E94B40447
:1019500068E083E591E00E94B40469E087E591E0E6
:101960000E94B4046AE08BE591E00E94B4046BE04D
:101970008FE591E00E94B4046CE083E691E00E9460
:10198000B4046EE087E691E00E94B4046FE08BE659
:1019900091E00E94B40460E18FE691E00E94B404FB
:1019A00061E183E791E00E94B40462E187E791E09E
:1019B0000E94B40463E18BE791E00E94B4046DE0FF
:1019C0008FE791E00E94B40410928E018FEF809314
:1019D000890110928A0181E08093880182E08093DE
:1019E0008B0184E080938C01A0EDB1E0E8E8F1E0A8
:1019F0008FEF9FEF8D939D9322E0A031B207D1F737
:101A00001092470210924902109248021092CA01A5
:101A10001092CC011092CB01DF01A857BF4F1C924E
:101A20001386AC57B1098AE0ED01C358DF4F188225
:101A30001D928150C9F73B9681E0EF3BF80761F7B3
:101A400010924B0210924A0210924C02DF91CF91F9
:101A50000895F999FECF92BD81BDF89A992780B576
:101A60000895262FF999FECF1FBA92BD81BD20BDE2
:101A70000FB6F894FA9AF99A0FBE01960895EE0FF0
:101A8000FF1F0590F491E02D0994F894FFCF090011
:101A90000100002121000021240560810081002136
:101AA00081A060610160002180A16061006100206F
:0E1AB0002000808000010101020101010800F8
:107E0000112484B714BE81FFF0D085E080938100F7
:107E100082E08093C00088E18093C10086E0809377
:107E2000C20080E18093C4008EE0C9D0259A86E02C
:107E300020E33CEF91E0309385002093840096BBD3
:107E4000B09BFECF1D9AA8958150A9F7CC24DD24C4
:107E500088248394B5E0AB2EA1E19A2EF3E0BF2EE7
:107E6000A2D0813461F49FD0082FAFD0023811F036
:107E7000013811F484E001C083E08DD089C08234E0
:107E800011F484E103C0853419F485E0A6D080C0E4
:107E9000853579F488D0E82EFF2485D0082F10E0AE
:107EA000102F00270E291F29000F111F8ED06801E7
:107EB0006FC0863521F484E090D080E0DECF843638
:107EC00009F040C070D06FD0082F6DD080E0C81688
:107ED00080E7D80618F4F601B7BEE895C0E0D1E017
:107EE00062D089930C17E1F7F0E0CF16F0E7DF06D8
:107EF00018F0F601B7BEE89568D007B600FCFDCFD4
:107F0000A601A0E0B1E02C9130E011968C91119780
:107F100090E0982F8827822B932B1296FA010C0160
:107F200087BEE89511244E5F5F4FF1E0A038BF0790
:107F300051F7F601A7BEE89507B600FCFDCF97BE46
:107F4000E89526C08437B1F42ED02DD0F82E2BD052
:107F50003CD0F601EF2C8F010F5F1F4F84911BD097
:107F6000EA94F801C1F70894C11CD11CFA94CF0C13
:107F7000D11C0EC0853739F428D08EE10CD085E9AC
:107F80000AD08FE07ACF813511F488E018D01DD067
:107F900080E101D065CF982F8091C00085FFFCCF94
:107FA0009093C60008958091C00087FFFCCF809118
:107FB000C00084FD01C0A8958091C6000895E0E648
:107FC000F0E098E1908380830895EDDF803219F02E
:107FD00088E0F5DFFFCF84E1DECF1F93182FE3DFCA
:107FE0001150E9F7F2DF1F91089580E0E8DFEE27F6
:047FF000FF270994CA
:027FFE00040479
:00000001FF
