:100000000C9462000C948A000C948A000C948A0070
:100010000C948A000C948A000C948A000C948A0038
:100020000C948A000C948A000C948A000C948A0028
:100030000C948A000C948A000C948A000C948A0018
:100040000C94FD020C948A000C9447030C948A00D3
:100050000C94A7030C948A000C948A000C948A00D8
:100060000C948A000C948A000000000023002600F3
:10007000290000000000240027002A0000000000E2
:10008000250028002B0004040404040404040202D4
:100090000202020203030303030301020408102007
:1000A0004080010204081020010204081020000012
:1000B0000008000201000003040700000000000027
:1000C00000000E0B11241FBECFEFD8E0DEBFCDBF66
:1000D00011E0A0E0B1E0EEEAF7E102C005900D9278
:1000E000A033B107D9F722E0A0E3B1E001C01D922F
:1000F000A232B207E1F710E0C2E6D0E004C02197D7
:10010000FE010E94CF0BC136D107C9F70E94E4035C
:100110000C94D50B0C94000020911D02EBE0E29FA3
:10012000D0011124AC51BE4F6C932E9FF0011124CD
:1001300050E040E0DC013D91CD01DA01AE0FBF1F80
:10014000AB51BE4F3C934F5F5F4F461798F32F5F05
:10015000253018F420931D02089510921D02089571
:10016000FC01319690E080E06250770B96171706FD
:1001700024F4219182279F5FF9CF80830895CF9344
:10018000DF9300D000D01F92CDB7DEB7198222E5F1
:100190002A831D829C0136952795369527952B83BA
:1001A000880F8670806898E0499FA0011124482B31
:1001B000642B6C8365E0CE0101960E94B00065E07F
:1001C000CE0101960E948C000F900F900F900F901F
:1001D0000F90DF91CF9108958F77982F20E041E025
:1001E000992329F024273FEF390F9323F9CF2111C9
:1001F00080680895CF93DF9300D000D0CDB7DEB7ED
:100200008091850181110EC081E68A8382E88B830B
:1002100083EE8C838091A301898364E0CE010196F3
:100220000E948C000F900F900F900F90DF91CF9154
:100230000895833081F028F4813099F08230A9F05C
:1002400008958730A9F08830C9F08430B1F48091E6
:1002500080008F7D03C0809180008F778093800025
:10026000089584B58F7784BD089584B58F7DFBCFC5
:100270008091B0008F778093B00008958091B00096
:100280008F7DF9CF1F93CF93DF93282F30E0F901B3
:10029000E255FF4F8491F901E656FF4FD491F901E1
:1002A000EA57FF4FC491CC23A9F0162F81110E9469
:1002B0001901EC2FF0E0EE0FFF1FE458FF4FA5915E
:1002C000B4918FB7F894EC91111108C0D095DE234A
:1002D000DC938FBFDF91CF911F910895DE2BF8CF74
:1002E000CF93DF9390E0FC01E656FF4F24918A57AD
:1002F0009F4FFC0184918823D1F090E0880F991FD3
:10030000FC01EE58FF4FA591B491FC01E458FF4F5A
:10031000C591D491623071F49FB7F8943C91822FCB
:10032000809583238C93E8812E2B28839FBFDF91B8
:10033000CF9108958FB7F894EC912E2B2C938FBF0B
:10034000F6CF3FB7F8948091390190913A01A0918E
:100350003B01B0913C0126B5A89B05C02F3F19F089
:100360000196A11DB11D3FBFBA2FA92F982F882735
:10037000BC01CD01620F711D811D911D42E0660F10
:10038000771F881F991F4A95D1F708958F929F92E2
:10039000AF92BF92CF92DF92EF92FF924B015C013E
:1003A0000E94A1016B017C010E94A1016C197D09D1
:1003B0008E099F09683E734081059105A8F321E0ED
:1003C000821A9108A108B10888EEC80E83E0D81EF1
:1003D000E11CF11C81149104A104B10429F7FF90E0
:1003E000EF90DF90CF90BF90AF909F908F90089547
:1003F0000F931F93CF93DF93EC01298130E0F90134
:10040000E255FF4F8491F901E656FF4F0491F9013F
:10041000EA57FF4F1491112331F181110E94190104
:10042000E12FF0E0EE0FFF1FE859FF4FA591B491C7
:10043000EC910E2331E020E009F430E0832F922F7D
:10044000282F21703A81321308C03B81321781F086
:100450002B83892B59F083E088832A83DF91CF9106
:100460001F910F91089590E080E0EACF82E0F4CFF1
:10047000892B11F081E0F0CF1882EFCFFF920F931C
:100480001F93CF93DF93EC01DC01A856BF4F9C91E3
:10049000492F50E09E018BE0989F200D311D1124C3
:1004A000F901EF59FF4FF080FF20A9F0BE01675618
:1004B0007F4FFB018081280F311DF901EE59FF4F5D
:1004C000008110E0811118C02A8111602223A1F05F
:1004D00081E0FB01808360E08E810E94420188817F
:1004E000843099F58A81811130C01882DF91CF91D3
:1004F0001F910F91FF9008958F5FFB018F1540F1C1
:1005000010828BE0849FF001859FF00D1124EC0F89
:10051000FD1FEF59FF4F10829F5F9530A0F49C9311
:1005200061E08E810E9442018091C1008E7F8093A4
:10053000C10010FF05C08091C10081608093C1009F
:100540000093C600D3CF1C92EBCF82E08883CECF3E
:100550008083E6CF209102013091030121303105E3
:1005600041F0909301018093000162E08CE00C94D3
:10057000700108950F931F93CF93DF932FB7F894D3
:100580008091350190913601A0913701B0913801E9
:100590002FBF409130015091310160913201709133
:1005A00033018C019D01041B150B260B370BB90180
:1005B000A8014233510561057105D0F080933001E7
:1005C00090933101A0933201B0933301CFE3D1E096
:1005D000CE010E94F801249611E0CF37D107C1F770
:1005E0008FE791E0DF91CF911F910F910C94F8016B
:1005F000DF91CF911F910F9108951F920F920FB627
:100600000F9211242F933F938F939F93AF93BF9398
:100610008091350190913601A0913701B091380158
:100620003091340123E0230F2D3758F50196A11D99
:10063000B11D209334018093350190933601A0932E
:100640003701B09338018091390190913A01A0911E
:100650003B01B0913C010196A11DB11D8093390170
:1006600090933A01A0933B01B0933C01BF91AF91AD
:100670009F918F913F912F910F900FBE0F901F90E0
:10068000189526E8230F0296A11DB11DD2CF1F9207
:100690000F920FB60F9211242F933F934F935F93B6
:1006A0006F937F938F939F93AF93BF93CF93DF937A
:1006B000EF93FF93C0913D01D0913E01209751F1FE
:1006C0008091C10081FF39C08091C6008C879FEF67
:1006D0009A838F3519F4CE010E943E022D89223073
:1006E000C8F08E898F7090E002962817190671F471
:1006F000FE013D9680E0918591938F5F2813FBCF9B
:1007000081E0FE01E556FF4F80831D8A8D89883088
:1007100008F01D8AFF91EF91DF91CF91BF91AF91CA
:100720009F918F917F916F915F914F913F912F9109
:100730000F900FBE0F901F901895ED89EF5FED8B16
:100740008091C600EC0FFD2FF11D858BC7CF1F9246
:100750000F920FB60F9211242F933F934F935F93F5
:100760006F937F938F939F93AF93BF93EF93FF9379
:1007700080913D0190913E01009711F00E943E0250
:10078000FF91EF91BF91AF919F918F917F916F9169
:100790005F914F913F912F910F900FBE0F901F903F
:1007A00018951F93CF93DF93EC01162F1A821B82AB
:1007B00062E0812F0E947001198381E088838A831F
:1007C000DF91CF911F910895CF93DF93CDB7DEB71F
:1007D000A5970FB6F894DEBF0FBECDBF789484B551
:1007E000826084BD84B5816084BD85B5826085BD2D
:1007F00085B5816085BD80916E00816080936E00BB
:1008000010928100809181008260809381008091AC
:10081000810081608093810080918000816080935D
:1008200080008091B10084608093B1008091B0001D
:1008300081608093B00080917A00846080937A0018
:1008400080917A00826080937A0080917A00816042
:1008500080937A0080917A00806880937A00109269
:10086000C10061E082E00E94700162E083E00E94CA
:10087000700162E084E00E94700162E085E00E9405
:10088000700162E086E00E94700162E087E00E94F1
:10089000700162E088E00E94700162E089E00E94DD
:1008A000700162E08AE00E94700162E08BE00E94C9
:1008B000700162E08CE00E94700162E08EE00E94B4
:1008C000700162E08FE00E94700162E080E10E94AE
:1008D000700162E081E10E94700162E082E10E94A9
:1008E000700161E083E10E94700162E08DE00E948E
:1008F00070010E94BA0264E670E080E090E00E941D
:10090000C6010E94BA0264E670E080E090E00E94B6
:10091000C6010E94BA0264E670E080E090E00E94A6
:10092000C6010E94BA0264E670E080E090E00E9496
:10093000C6010E94BA0261E083E10E94420168EEB2
:1009400073E080E090E00E94C60160E083E10E94D5
:10095000420184E08093880182E08093890181E0F4
:100960008093840161E082E00E94700160E08091E8
:1009700089010E944201F8941092C5008FE0809393
:10098000C4001092C0008CED8093C10086E080937B
:10099000C200789483E891E090933E0180933D01FA
:1009A0008091040190910501A0910601B091070189
:1009B0008F839887A987BA87809108019091090150
:1009C000A0910A01B0910B018E879F87A88BB98BEC
:1009D00080910C0190910D01A0910E01B0910F0139
:1009E0008A8B9B8BAC8BBD8B8091100190911101F8
:1009F000A0911201B09113018E8B9F8BA88FB98F9C
:100A00008091140190911501A0911601B0911701E8
:100A10008A8F9B8FAC8FBD8F8091180190911901A7
:100A2000A0911A01B0911B018E8F9F8FA8A3B9A32B
:100A300080911C0190911D01A0911E01B0911F0198
:100A40008AA39BA3ACA3BDA311E022242394312C41
:100A50008091200190912101A09122018B879C8798
:100A6000AD874090230150902401609025010E94A1
:100A7000BA023FE3A32E31E0B32EEE24E394F12C2F
:100A8000D5010C91033011F4E1E0EC93D5018C9188
:100A9000823009F41C928EEF800F823080F5C09076
:100AA0000201D09003014701B1E08B1A9108C40103
:100AB0000E94B90BCA94CD2809F09FC08983C70151
:100AC0000E94B90B8A83C980DA809D2C991C9924D5
:100AD000991CF3E0DF22023011F421E0922641E07C
:100AE000692DC6010E94BF0064E170E080E090E0E3
:100AF0000E94C60140E0692DC6010E94BF0044E08B
:100B0000A40EB11C82E0E80EF11C9FE1E916F1048D
:100B100009F0B6CF80917F01833011F410937F01EB
:100B200090917F01923009F081C010927F01813055
:100B300009F080C0309203012092020180917F0170
:100B4000833011F410937F0190917F01923011F462
:100B500010927F01811104C01092030110920201D2
:100B600080918301823009F467C0833009F48BC01F
:100B70008111B2C08091850181112AC51093830132
:100B800080918A018F5F80938A018032B0F0982F24
:100B90009F71E92FF0E0EE0FFF1FED57FE4F21A1EF
:100BA00032A12F3F3F4F19F4803208F00FC58093D8
:100BB0008A01911102C010938A0100918A010F717C
:100BC000802F80640E94EC00F82E8093A101802F7A
:100BD0000E94EC008093A201802F80660E94EC00AE
:100BE0008093A301F98261E0CE0101960E948C00FE
:100BF00083E891E00E943E023BC0C0900001D0908B
:100C00000101033011F46894D7F88C1521F06C2D94
:100C1000C4010E94C10BC7010E94B90BD81609F488
:100C20006ECF6D2DC7010E94C10B69CF813009F0D5
:100C300085CF80CF80E088CF0E94A101C0908B013A
:100C4000D0908C01E0908D01F0908E016C197D099F
:100C50008E099F09663272408105910510F010924D
:100C60008301809198018823B9F183E08093830107
:100C70000E94A10160938B0170938C0180938D0180
:100C800090938E0129C00E94A101C0908B01D09049
:100C90008C01E0908D01F0908E016C197D098E0918
:100CA0009F096037774181059105F0F0109283012B
:100CB0001092900110929101109292011092930162
:100CC0001092940110929501109296011092970142
:100CD00010928F011092980180E090E0892B09F426
:100CE000C6CE0E940000B0CE80911E028823A1F3E0
:100CF00010921E0280919001482F4F7050E04F5F7C
:100D00005F4F60E090E0262F30E0421753073CF041
:100D10002D573E4FF901258592276F5FF4CF911132
:100D200094C0823509F47CC308F5823209F4CCC141
:100D300030F4813209F498C00E94FA0065C1833210
:100D400009F4D9C18234C1F780E090E0892B09F41D
:100D50005BC18091850181115BC1409192016091DD
:100D600091018091A3010E9400004EC1833E09F4CD
:100D7000E0C138F5803801F7809191018038E1F6C3
:100D8000809185018111D0C18E859F85A889B989FF
:100D900089839A83AB83BC8364E0CE0101960E9471
:100DA0008C0080918701813009F42EC11093870156
:100DB00080E090E0892B09F427C181E00E940000C7
:100DC00023C1843E09F419C2863E09F0B5CF809153
:100DD0009101803309F018C1E0909201F12CFE2CB2
:100DE000EE24EE24BFE3FB2280919301E80EF11C78
:100DF00080919401C82ED12CDC2CCC24CC24E3E0AF
:100E0000DE2290919501C90ED11C8C7F8C3E51F44D
:100E100080E090E0892B31F040919601B601C70146
:100E20000E940000809194018C7F883E09F0ECC004
:100E300080E090E0892B09F4E7C0409196014F7063
:100E4000B601C7010E940000DFC0809185018111B9
:100E5000FBC081E68A8380E88B8381EE8C8380915E
:100E6000A301898364E064C3809185018111D0C0AE
:100E700080919101843201F5809192018530E1F4F5
:100E8000E091870181E0E93020F4F0E0EA5DFE4F77
:100E900080811D8292E69A8392E29B839091A301C6
:100EA00099838C8365E0CE0101960E94B00065E0D5
:100EB000CE0101960E948C00809191018132D1F483
:100EC00090919201911116C01E821D8293E69A8321
:100ED0008B8386E38C8380E18D838091A30189835A
:100EE00066E0CE0101960E94B00066E0CE01019658
:100EF0000E948C0080919101803821F580919201AF
:100F0000813A09F046C0809185018111BBC08E8D68
:100F10009F8DA8A1B9A189839A83AB83BC8364E028
:100F2000CE0101960E948C0080918701823051F0A1
:100F300082E08093870180E090E0892B19F082E0C5
:100F40000E94000080919101813819F580919201F1
:100F5000803A09F04BC080918501811198C08E893B
:100F60009F89A88DB98D89839A83AB83BC8364E004
:100F7000CE0101960E948C0080918701882349F060
:100F80001092870180E090E0892B19F080E00E94A8
:100F9000000080919101803149F580919201813367
:100FA00029F59091A30120911F0230912002809198
:100FB00021022115310509F46FC01E821D8233E61E
:100FC0003A8334E13B8399832C838D8366E0CE01A1
:100FD00001960E94B00066E0CE0101960E948C004E
:100FE0001092200210921F0210922102E091A301A0
:100FF000EF71F0E0EE0FFF1FED57FE4F81A192A1C0
:10100000019611F412A211A2809185018823E1F0CA
:1010100080918F01803609F082C2009190010136E3
:1010200009F040C280919101813009F00CC2809199
:101030009201803649F41092870180E090E0892B7C
:1010400019F080E00E94000010929001109291012E
:1010500010929201109293011092940110929501B6
:10106000109296011092970110928F018091850144
:101070008111A9C284E08093830183E891E00E94FA
:101080003E022ACE8A8D9B8DAC8DBD8D44CF8A8940
:101090009B89AC89BD8967CF1C821B8221E62A838C
:1010A0002FE12B8399838F3F21F483E18B8310926F
:1010B000210264E0CE0101960E94B00064E0CE01FE
:1010C00001960E948C0092CF80919101853109F0A8
:1010D00033CE1092200210921F021092210280E063
:1010E00090E0892B09F490CF809192018150990B67
:1010F0000E94000089CF80919101863109F01CCEB9
:101100001092200210921F021092210280E090E0C3
:10111000892B09F479CF80919201609193018150DC
:10112000990B0E94000070CF49825A826B8263E063
:1011300034CE9091850191116BCF909191019830AF
:1011400009F443C0D8F4992379F1973009F0F4CD2C
:101150001B821C821D821E8283EE8A8380E58B8324
:101160008091A301898366E0CE0101960E94B000C0
:1011700066E0CE0101960E948C0046CF993061F165
:10118000903F09F0D9CD80E090E0892B09F45CCF45
:10119000609192016F7380919301762F682F8091F7
:1011A000A3010E94000030CF80E090E0892B09F479
:1011B0004BCF609192016F7380919301762F682FCE
:1011C0008091A3010E9400001FCF1B821C821D8200
:1011D0001E828A8381E5C3CF80E090E0892B09F4E9
:1011E00033CF609192016F7380919301762F682FB6
:1011F0008091A3010E94000007CF809192018F731C
:10120000909193018927982789272091A30100971E
:1012100009F44DC02F71922EE22FF0E0EE0FFF1F68
:10122000ED57FE4F6F01A1E2CA0ED11C21A132A1E0
:1012300082179307E1F192A381A3E3E8EE2EE1E0A8
:10124000FE2E01E0F3EE8F2EA0E47A2E091549F16F
:10125000F701A3A0B4A0D6018D919C91A816B90660
:1012600001F5802F80660E94EC001B821C821D828B
:101270001E828A827B828983B4E6AB16B10418F0A1
:101280008B2D806C8C83AD8266E0CE0101960E942E
:10129000B00066E0CE0101960E948C00F70114A216
:1012A00013A20F5FF2E0EF0EF11C003279F680918D
:1012B0009101803191F480E090E0892B09F4A4CE73
:1012C000809192018F73909193016091940189278D
:1012D000982789270E94000097CE813191F480E001
:1012E00090E0892B09F490CE809192018F739091B8
:1012F0009301609194018927982789270E94000013
:1013000083CE823191F480E090E0892B09F47CCE89
:10131000809192018F73909193016091940189273C
:10132000982789270E9400006FCE833191F480E0D6
:1013300090E0892B09F468CE809192018F7390918F
:101340009301609194018927982789270E940000C2
:101350005BCE803291F480E090E0892B09F454CE8A
:10136000809192018F7390919301609194018927EC
:10137000982789270E94000047CE813291F480E0AF
:1013800090E0892B09F440CE809192018F73909167
:101390009301609194018927982789270E94000072
:1013A00033CE823291F480E090E0892B09F42CCE88
:1013B000809192018F73909193016091940189279C
:1013C000982789270E9400001FCE833211F0833FA7
:1013D00091F480E090E0892B09F416CE809192017F
:1013E0008F739091930160919401892798278927A1
:1013F0000E94000009CE883209F09ECC80E090E087
:10140000892B09F401CE809192018F739091930101
:10141000609194018927982789270E940000F4CDC4
:10142000609192012091910144E0249F9001112448
:10143000862F90E09595879583709927822B932B23
:101440000E94AA02E1CD81110FC0809192018136E4
:1014500009F0FACD82E08093870180E090E0892B4B
:1014600009F4F2CD82E0EECD883051F484E080932F
:10147000870180E090E0892B09F4E6CD84E0E2CD9D
:10148000823009F0E1CD80919201833609F0DCCD04
:1014900088E08093870180E090E0892B09F4D4CD27
:1014A00088E0D0CD013891F4809191018111CCCDAB
:1014B00080919201813809F0C7CD1093870180E0B7
:1014C00090E0892B09F4C0CD81E0BCCD802F807FD6
:1014D000803409F0B9CD0695077053E8E52E51E048
:1014E000F52EDD24D39482E0E80EF11C0D1508F4EE
:1014F000ABCDD7011D966C911D971C962C91B4E035
:101500002B9F90011124862F90E0959587958370ED
:101510009927822B932B0E940000D394E4CF8A3921
:1015200061F48B859C85AD8589839A83AB8363E069
:10153000CE0101960E948C0087CD80919001823669
:1015400009F082CD80919101823209F07DCD8091A8
:101550009201813041F1A8F08230E9F0883059F1F0
:1015600080918601813009F06FCD82E08093860101
:101570008F819885A985BA8589839A83AB83BC833B
:1015800071CC1092870180E090E0892B49F380E0D4
:101590000E940000E5CF8093870180E090E0892BD6
:1015A000F9F282E0F5CF8093870180E090E0892B0B
:1015B000B9F281E0EDCF8093870180E090E0892B44
:1015C00079F288E0E5CF1092830186CB8F5FDFCA86
:1015D00090918401992319F081508093850183E0D3
:1015E000809383018091860181110FC01093860141
:1015F0008AA19BA1ACA1BDA189839A83AB83BC8343
:1016000064E0CE0101960E948C00809185018111D9
:101610002FCB10928601109298012ACB63E08FE3C2
:1016200091E00E94D10364E083E491E00E94D10341
:1016300065E087E491E00E94D10366E08BE491E0ED
:101640000E94D10367E08FE491E00E94D10368E03B
:1016500083E591E00E94D10369E087E591E00E9473
:10166000D1036AE08BE591E00E94D1036BE08FE546
:1016700091E00E94D1036CE083E691E00E94D103E7
:101680006EE087E691E00E94D1036FE08BE691E087
:101690000E94D10360E18FE691E00E94D10361E1F5
:1016A00083E791E00E94D10362E187E791E00E9425
:1016B000D10363E18BE791E00E94D1036DE08FE7F6
:1016C00091E00E94D10310928A011092850181E07D
:1016D000809384018093860182E08093870184E077
:1016E0008093880110921B0210921C0210921D021E
:1016F000E4EAF1E083E891E02FEF3FEF21933193AB
:1017000041E0E43EF407D1F7FC01EF59FF4F1082AE
:1017100030E020E0F901EE59FF4FE80FF91F108289
:101720002F5F3F4F2A303105A9F70B9621E08A3B06
:10173000920751F710921E021092830110929001AD
:1017400010929101109292011092930110929401C3
:1017500010929501109296011092970110928F01AC
:10176000109298011092200210921F0210922102F2
:101770000895F999FECF92BD81BDF89A992780B559
:101780000895262FF999FECF1FBA92BD81BD20BDC5
:101790000FB6F894FA9AF99A0FBE01960895EE0FD3
:0E17A000FF1F0590F491E02D0994F894FFCFFF
:1017AE00090001000021210060810081002181A03B
:1017BE0060610160002180A160610061002124054B
:1017CE0000202000808000010101020101010800BB
:00000001FF
